:100000000C9434000C9448000C9446000C94460068
:100010000C9446000C9446000C9446000C94460048
:100020000C9446000C9446000C9446000C94460038
:100030000C9446000C9446000C9446000C94460028
:100040000C9446000C9446000C9446000C94460018
:100050000C9446000C9446000C9446000C94460008
:100060000C9446000C94460011241FBECFEFD8E03C
:10007000DEBFCDBF21E0A0E0B1E001C01D92A13004
:10008000B207E1F70E947B000C947E000C94000004
:100090001F921FB61F9211242F938F939F932FEFC0
:1000A00080E792E0215080409040E1F700C00000DE
:1000B0004A990CC09091000181E0911180E08093F9
:1000C000000180910001811541F0289A9F918F9144
:1000D0002F911F901FBE1F9018952898F7CF529808
:1000E0005A9A209A2898E9E6F0E08081826080831D
:1000F000E89A789408950E946F00FFCFF894FFCF9C
:00000001FF
