:100000000C9434000C943E000C943E000C943E0082
:100010000C943E000C943E000C943E000C943E0068
:100020000C943E000C943E000C943E000C943E0058
:100030000C943E000C943E000C943E000C943E0048
:100040000C943E000C943E000C943E000C943E0038
:100050000C943E000C943E000C943E000C943E0028
:100060000C943E000C943E0011241FBECFEFD8E04C
:10007000DEBFCDBF0E9440000C9462000C940000D3
:1000800000D000D0CDB7DEB7259A20E285B1822717
:1000900085B919821A821B821C8289819A81AB815F
:1000A000BC818032914AA740B10584F789819A8149
:1000B000AB81BC810196A11DB11D89839A83AB835D
:0800C000BC83EBCFF894FFCFE5
:00000001FF
