:100000000C9434000C943E000C943E000C943E0082
:100010000C943E000C943E000C943E000C943E0068
:100020000C943E000C943E000C943E000C943E0058
:100030000C943E000C943E000C943E000C943E0048
:100040000C943E000C943E000C943E000C943E0038
:100050000C943E000C943E000C943E000C943E0028
:100060000C943E000C943E0011241FBECFEFD8E04C
:10007000DEBFCDBF0E9496000C94DD000C94000002
:100080001092C50087E68093C40088E08093C10089
:1000900086E08093C20008959091C00095FFFCCF48
:1000A0008093C60008950F931F93CF93DF93CDB72E
:1000B000DEB72A970FB6F894DEBF0FBECDBF4AE079
:1000C000BE016F5F7F4F0E94A8008E010F5F1F4F20
:1000D000F80181918F01811111C08DE00E944C00C7
:1000E0008AE00E944C002A960FB6F894DEBF0FBE3D
:1000F000CDBFDF91CF911F910F9108950E944C00C9
:10010000E7CF80E480937C0087E880937A000895AD
:1001100080917A00806480937A0080917A0086FDD5
:10012000FCCF809178009091790008950E94810021
:100130000E9440000E9488000E9453002FEF81EE31
:1001400094E0215080409040E1F700C00000F2CFE1
:10015000BB274A3031F4992322F4BDE29095819572
:100160009F4F0C94B400BB27FB015527AA27880F8B
:10017000991FAA1FA41710F0A41B83955051B9F71B
:10018000A05DAA3308F0A95DA193009779F7B1119A
:10019000B1931192CB010C94CD00DC01FC01672FCF
:1001A00071917723E1F7329704C07C916D9370834E
:0E01B0006291AE17BF07C8F30895F894FFCF11
:00000001FF
