:100000000C9434000C943E000C943E000C943E0082
:100010000C943E000C943E000C943E000C943E0068
:100020000C943E000C943E000C943E000C943E0058
:100030000C943E000C943E000C943E000C943E0048
:100040000C943E000C943E000C943E000C943E0038
:100050000C943E000C943E000C943E000C943E0028
:100060000C943E000C943E0011241FBECFEFD8E04C
:10007000DEBFCDBF0E9493000C949A000C94000048
:1000800083E88093B00082E08093B100239A83E2FA
:10009000809380008AE080938100229A089580E016
:1000A00090E08093B30090938B0080938A00EFE7F9
:1000B000FEE33197F1F700C0000001968F3F9105F4
:1000C00081F78093B30090938B0080938A00EFE7D1
:1000D000FEE33197F1F700C00000019791F7089512
:1000E00080E090E01092B30090938B0080938A00A0
:1000F000EFE7FEE33197F1F700C0000004968115A9
:10010000F4E09F0779F78FEF93E01092B30090939C
:100110008B0080938A00EFE7FEE33197F1F700C090
:1001200000000497F2CF0E9440001092B3000E949A
:080130004F00FDCFF894FFCF52
:00000001FF
