:100000000C9434000C9451000C9451000C94510049
:100010000C9451000C9451000C9451000C94C900A4
:100020000C9451000C9451000C9451000C9451000C
:100030000C9451000C9451000C9451000C945100FC
:100040000C9451000C9451000C9451000C945100EC
:100050000C9451000C9451000C9451000C945100DC
:100060000C9451000C94510011241FBECFEFD8E026
:10007000DEBFCDBF11E0A0E0B1E0EEEAF2E002C0E9
:1000800005900D92A230B107D9F721E0A2E0B1E0CE
:1000900001C01D92AC30B207E1F70E9401010C943F
:1000A00055010C94000082E08093B00094E090939E
:1000B000B1008093700089EF8093B30008952FB74B
:1000C000F894609102017091030180910401909174
:1000D00005012FBF0895E4E6F0E080818F7B8083E7
:1000E000E0E7F0E08081826080830895E0E7F0E05F
:1000F00080818D7F8083E4E6F0E08081806480836E
:1001000008958FB7F8941092020110920301109293
:100110000401109205018FBF08950F931F938B0167
:100120009C014FB7F8948091020190910301A09136
:100130000401B0910501800F911FA21FB31F80938E
:10014000020190930301A0930401B09305014FBFF6
:100150001F910F9108950F931F938B019C014FB72F
:10016000F8948091020190910301A0910401B09153
:100170000501801B910BA20BB30B8093020190939E
:100180000301A0930401B09305014FBF1F910F918C
:1001900008951F921FB61F9211248F939F93AF93C0
:1001A000BF938091020190910301A0910401B0914D
:1001B00005010196A11DB11D8093020190930301D9
:1001C000A0930401B0930501BF91AF919F918F91CE
:1001D0001F901FBE1F90189557985F9A2098289AD5
:1001E00084B18C6084B90895FB019081982381E0EB
:1001F000911101C080E00895FB01908198279083C0
:1002000008950E94EC000E9453007894D1E0189960
:100210000CC0189BFECF80910A018D2780930A01A4
:1002200080910A018115E9F12B9A19B117FBCC27AE
:10023000C0F9809101018C1761F00E945F006B0191
:100240007C01C0920601D0920701E0920801F09271
:1002500009010E945F008090060190900701A09024
:100260000801B0900901681979098A099B0963336B
:1002700071058105910590F0809100018C1771F056
:10028000C093000117FD0AC080910B018D27809358
:100290000B0180910B01811531F02A9AC093010165
:0E02A000B6CF2B98C2CF2A98F9CFF894FFCF93
:0202AE0001014C
:00000001FF
