:100000000C945E000C9486000C9486000C94860080
:100010000C9486000C9486000C9486000C94860048
:100020000C9486000C9486000C9486000C94860038
:100030000C9486000C9486000C9486000C94860028
:100040000C9401030C9486000C9471030C944B03E4
:100050000C9486000C9486000C9486000C94860008
:100060000C9486000C948600000000080002010039
:100070000003040700000000000000000000000072
:10008000250028002B0000000000240027002A0083
:10009000040404040404040402020202020203032E
:1000A0000303030301020408102040800102040836
:1000B0001020010204081020A303580511241FBEBC
:1000C000CFEFD8E0DEBFCDBF22E0AAEDB1E001C0A6
:1000D0001D92AA38B207E1F711E0A0E0B1E0E8E52F
:1000E000FFE002C005900D92AA3DB107D9F710E0DC
:1000F000CDE5D0E004C02197FE010E949F05CC35DC
:10010000D107C9F70E94D5030C949F070C940000F7
:1001100090E0FC01EC55FF4F249180579F4FFC016C
:100120008491882399F090E0880F991FFC01EA5789
:10013000FF4FA591B491FC01E458FF4F8591949134
:100140008FB7F894EC91E22BEC938FBF089590E079
:10015000FC01E859FF4F2491FC01EC55FF4F34910D
:10016000FC01E057FF4FE491EE23C9F0222339F060
:10017000233001F1A8F4213019F1223029F1F0E007
:10018000EE0FFF1FE458FF4FA591B4918FB7F8947D
:10019000EC91611126C030953E233C938FBF0895AA
:1001A0002730A9F02830C9F0243049F78091800029
:1001B0008F7D03C0809180008F7780938000DFCF98
:1001C00084B58F7784BDDBCF84B58F7DFBCF8091E5
:1001D000B0008F778093B000D2CF8091B0008F7D38
:1001E000F9CF3E2BDACFAF92BF92CF92DF92EF9250
:1001F000FF920F931F93CF93DF936C017B018B01D1
:10020000040F151FEB015E01AE18BF08C017D10720
:1002100059F06991D601ED91FC910190F081E02DAA
:10022000C6010995892B79F7C501DF91CF911F91FF
:100230000F91FF90EF90DF90CF90BF90AF90089517
:10024000FC01538D448D252F30E0842F90E0821BDC
:10025000930B541710F0CF96089501970895FC0161
:10026000918D828D981761F0A28DAE0FBF2FB11DB9
:100270005D968C91928D9F5F9F73928F90E0089511
:100280008FEF9FEF08952FB7F8948091DF01909141
:10029000E001A091E101B091E2012FBF8093EB0159
:1002A0009093EC01A093ED01B093EE0183EE91E009
:1002B0000E942F0197FF26C02FB7F8948091DF018D
:1002C0009091E001A091E101B091E2012FBF409136
:1002D000EB015091EC016091ED017091EE01841BF6
:1002E000950BA60BB70B4091E7015091E801609187
:1002F000E9017091EA0184179507A607B707B0F2E4
:100300008FEF9FEF0895FC01918D828D981731F04A
:10031000828DE80FF11D858D90E008958FEF9FEF9E
:100320000895FC01918D228D892F90E0805C9F4F74
:10033000821B91098F739927089583EE91E00E94A3
:10034000910121E0892B09F420E0822F089580E0BB
:1003500090E0892B29F00E949D0181110C940000EE
:100360000895FC01A48DA80FB92FB11DA35ABF4F4A
:100370002C91848D90E001968F739927848FA689A4
:10038000B7892C93A089B1898C91837080648C93F8
:10039000938D848D981306C00288F389E02D8081A7
:1003A0008F7D80830895EF92FF920F931F93CF93D9
:1003B000DF93EC0181E0888F9B8D8C8D98131AC0A0
:1003C000E889F989808185FF15C09FB7F894EE8987
:1003D000FF896083E889F9898081837080648083E4
:1003E0009FBF81E090E0DF91CF911F910F91FF902F
:1003F000EF900895F62E0B8D10E00F5F1F4F0F73D7
:100400001127E02E8C8D8E110CC00FB607FCFACF91
:10041000E889F989808185FFF5CFCE010E94B1017D
:10042000F1CFEB8DEC0FFD2FF11DE35AFF4FF08262
:100430009FB7F8940B8FEA89FB8980818062CFCFC8
:10044000CF93DF93EC01888D8823B9F0AA89BB890B
:10045000E889F9898C9185FD03C0808186FD0DC0F6
:100460000FB607FCF7CF8C9185FFF2CF808185FF17
:10047000EDCFCE010E94B101E9CFDF91CF91089578
:10048000CF93DF93FC0101900020E9F73197AF0192
:10049000481B590BBC0183EE91E00E94F300EC0174
:1004A00042E050E068E171E083EE91E00E94F300E9
:1004B0008C0F9D1FDF91CF910895EF92FF920F93C4
:1004C0001F93CF93DF938617970769F1FC0124816F
:1004D0003581FB014481558124173507E1F4232B35
:1004E00011F1FC0100811181FB01C081D181F80172
:1004F00081918F018823B9F0082E000C990B0E947E
:1005000087077C018991082E000C990B0E948707B0
:10051000E816F90661F380E0DF91CF911F910F910A
:10052000FF90EF90089581E0F7CF0F931F93CF9343
:10053000DF93EC0188819981009759F02A813B81F2
:100540002617370730F081E0DF91CF911F910F918F
:1005500008958B016F5F7F4F0E94CA06009759F084
:10056000998388831B830A832C813D81232B59F730
:10057000FC011082E8CF80E0E7CFFC01808191810F
:10058000009711F00C9441060895EF92FF920F939B
:100590001F93CF93DF93EC017B01198218821B829A
:1005A0001A821D821C82FB0101900020E9F731971D
:1005B0008F01061B170BB8010E9495022881398113
:1005C000811113C02115310519F0C9010E9441069E
:1005D000198218821D821C821B821A82DF91CF91A0
:1005E0001F910F91FF90EF9008951D830C83B70129
:1005F000C901DF91CF911F910F91FF90EF900C9463
:1006000098071F920F920FB60F9211242F933F93CA
:100610008F939F93AF93BF938091DF019091E001FF
:10062000A091E101B091E2013091DE0123E0230FBE
:100630002D3758F50196A11DB11D2093DE01809341
:10064000DF019093E001A093E101B093E20180917A
:10065000DA019091DB01A091DC01B091DD010196FE
:10066000A11DB11D8093DA019093DB01A093DC0101
:10067000B093DD01BF91AF919F918F913F912F91E9
:100680000F900FBE0F901F90189526E8230F02962B
:10069000A11DB11DD2CF1F920F920FB60F92112440
:1006A0002F933F934F935F936F937F938F939F937A
:1006B000AF93BF93EF93FF9383EE91E00E94B1015C
:1006C000FF91EF91BF91AF919F918F917F916F912A
:1006D0005F914F913F912F910F900FBE0F901F9000
:1006E00018951F920F920FB60F9211242F938F938C
:1006F0009F93EF93FF93E091F301F091F4018081D8
:10070000E091F901F091FA0182FD1BC09081809186
:10071000FC018F5F8F732091FD01821741F0E09102
:10072000FC01F0E0ED51FE4F958F8093FC01FF91AD
:10073000EF919F918F912F910F900FBE0F901F906F
:1007400018958081F4CFE3EEF1E01382128288EEF7
:1007500093E0A0E0B0E084839583A683B7838AE02A
:1007600091E09183808385EC90E09587848784EC89
:1007700090E09787868780EC90E0918B808B81EC6E
:1007800090E0938B828B82EC90E0958B848B86EC4F
:1007900090E0978B868B118E128E138E148E6AE1E9
:1007A00071E080E892E00C94C502CF93DF93CDB75F
:1007B000DEB72C970FB6F894DEBF0FBECDBF78948E
:1007C00084B5826084BD84B5816084BD85B5826056
:1007D00085BD85B5816085BD80916E008160809307
:1007E0006E00109281008091810082608093810070
:1007F0008091810081608093810080918000816080
:10080000809380008091B10084608093B1008091DA
:10081000B00081608093B00080917A008460809302
:100820007A0080917A00826080937A0080917A00C9
:10083000816080937A0080917A00806880937A004A
:100840001092C10089E00E9488008AE00E9488001E
:10085000E091F301F091F40182E08083E091EF01F7
:10086000F091F0011082E091F101F091F20180E14C
:1008700080831092FB01E091F701F091F80186E08E
:100880008083E091F501F091F601808180618083A1
:10089000E091F501F091F601808188608083E0911C
:1008A000F501F091F601808180688083E091F50187
:1008B000F091F60180818F7D80838BE191E00E9431
:1008C000400280E0A82E80E0B82E83EE91E00E94E6
:1008D0009101181619060CF054C06AE171E0CE01BE
:1008E00007960E94C5020E94430197FD1EC08A30F0
:1008F0009105D9F089831A820B851C850F5F1F4FE4
:10090000B801CE0107960E949502882361F32F81DA
:1009100038858B859C85BE016F5F7F4F820F931F4B
:100920000E9498071C870B87DECFCF80D884C11424
:10093000D10431F00B851C8576010115110571F587
:1009400061E471E0CE0101960E94C502BE016F5FB5
:100950007F4FCE0107960E945D02182FCE010196AF
:100960000E94BD02112309F44FC061E089E00E949A
:10097000A70087E491E00E944002CE0107960E9402
:10098000BD02A114B10409F4A0CF0E949D018823E7
:1009900009F49BCF0E94000098CF740147018FEFAC
:1009A000881A980AF7018081082E000C990B0E9482
:1009B0005C05892B91F7015011090C0D1D1DF801E3
:1009C0008081082E000C990B0E945C05892B31F068
:1009D0000E151F0518F001501109F1CFA8014F5F46
:1009E0005F4F4E195F095C874B87CE14DF0420F4FC
:1009F000B701C6010E948F07EF81F8858B859C8522
:100A0000E80FF91F10829CCF68E571E0CE010196D6
:100A10000E94C502BE016F5F7F4FCE0107960E9404
:100A20005D02182FCE0101960E94BD02112339F0FC
:100A300060E089E00E94A7008FE591E09CCF62E72B
:100A400071E0CE0101960E94C502BE016F5F7F4F2B
:100A5000CE0107960E945D02182FCE0101960E94DA
:100A6000BD02112339F061E08AE00E94A70088E707
:100A700091E081CF69E871E0CE0101960E94C50244
:100A8000BE016F5F7F4FCE0107960E945D02182F57
:100A9000CE0101960E94BD0283EA91E0112309F480
:100AA0006ACF60E08AE00E94A70080E991E063CF0E
:100AB00080E892E00C94BD0291110C94650580329F
:100AC00019F089508550C8F7089599278827089507
:100AD0002F923F924F925F926F927F928F929F924E
:100AE000AF92BF92CF92DF92EF92FF920F931F933C
:100AF000CF93DF93CDB7DEB7CA1BDB0B0FB6F894ED
:100B0000DEBF0FBECDBF09942A88398848885F842C
:100B10006E847D848C849B84AA84B984C884DF809D
:100B2000EE80FD800C811B81AA81B981CE0FD11D81
:100B30000FB6F894DEBF0FBECDBFED010895EE0FE6
:100B4000FF1F0590F491E02D09940F931F93CF930D
:100B5000DF938230910510F482E090E0E09188020A
:100B6000F091890230E020E0B0E0A0E0309799F405
:100B70002115310509F44AC0281B390B24303105F1
:100B8000D8F58A819B816115710589F1FB019383F9
:100B90008283FE0111C04081518102811381481777
:100BA0005907E0F04817590799F4109761F0129629
:100BB0000C93129713961C933296CF01DF91CF912D
:100BC0001F910F9108950093880210938902F4CF2A
:100BD0002115310551F04217530738F0A901DB0107
:100BE0009A01BD01DF01F801C1CFEF01F9CF909368
:100BF000890280938802CDCFFE01E20FF31F81931B
:100C000091932250310939832883D7CF20918602CE
:100C100030918702232B41F420910201309103018E
:100C200030938702209386022091000130910101C8
:100C30002115310541F42DB73EB740910401509183
:100C40000501241B350BE0918602F0918702E21723
:100C5000F307A0F42E1B3F0B2817390778F0AC01DF
:100C60004E5F5F4F2417350748F04E0F5F1F5093BC
:100C7000870240938602819391939FCFF0E0E0E05A
:100C80009CCFCF93DF930097E9F0FC01329713825A
:100C90001282A0918802B0918902ED0130E020E03B
:100CA0001097A1F420813181820F931F2091860239
:100CB000309187022817390709F061C0F093870245
:100CC000E0938602DF91CF910895EA01CE17DF0706
:100CD000E8F54A815B819E0141155105B1F7E901B3
:100CE000FB83EA8349915991C40FD51FEC17FD0787
:100CF00061F4808191810296840F951FE9019983A7
:100D00008883828193819B838A83F0E0E0E012965E
:100D10008D919C9113970097B9F52D913C91119766
:100D2000CD010296820F931F209186023091870297
:100D30002817390739F6309751F510928902109229
:100D40008802B0938702A0938602BCCFD383C2836C
:100D500040815181840F951FC817D90761F44E5FF8
:100D60005F4F88819981480F591F518340838A8141
:100D70009B81938382832115310509F0B0CFF093D5
:100D80008902E09388029ECFFD01DC01C0CF13826F
:100D90001282D7CFB0E0A0E0E0EDF6E00C946A0557
:100DA0008C01009751F4CB010E94A5058C01C8016C
:100DB000CDB7DEB7E0E10C948605FC01E60FF71F26
:100DC0009C0122503109E217F30708F49DC0D901B4
:100DD000CD91DC911197C617D70798F0C530D10592
:100DE00030F3CE0104978617970708F3C61BD70B7D
:100DF0002297C193D1936D937C93CF010E944106BA
:100E0000D6CF5B01AC1ABD0A4C018C0E9D1EA09181
:100E10008802B0918902512C412CF12CE12C1097C1
:100E200031F580918602909187028815990509F025
:100E30005CC04616570608F058C08091000190919A
:100E40000101009741F48DB79EB740910401509184
:100E50000501841B950BE817F90708F055C0F093BE
:100E60008702E0938602F90171836083A0CF8D91A0
:100E70009C91119712966C90129713967C901397F1
:100E8000A815B90559F56C0142E0C40ED11CCA146D
:100E9000DB0420F1AC014A195B09DA0112961597BF
:100EA00080F06282738251834083D9016D937C9379
:100EB000E114F10471F0D7011396FC93EE931297AD
:100EC00076CF22968C0F9D1FF90191838083F301C9
:100ED000EFCFF0938902E093880269CF4816590654
:100EE00008F42C017D01D3019ACFCB010E94A50506
:100EF0007C01009749F0AE01B8010E948F07C8013C
:100F00000E944106870153CF10E000E050CF9111BD
:100F1000089581548A5108F4805E855A0895FB0132
:100F2000DC0102C001900D9241505040D8F7089565
:100F3000FB01DC0101900D920020E1F7089510E023
:100F4000CDE5D0E004C0FE010E949F052196CE357C
:080F5000D107C9F7F894FFCFA7
:100F580000008A02800000000000D301F300200195
:100F6800200291012F0183010D0A00416E6765205F
:100F78006B6F6D6D616E646F20284C31206F6E2F22
:100F88006F66662C204C32206F6E2F6F6666293A8A
:100F9800004C31206F6E004C4544203120C3A472B0
:100FA8002074C3A46E6421004C31206F6666004C27
:100FB8004544203120C3A47220736CC3A4636B74AE
:100FC80021004C32206F6E004C4544203220C3A4CF
:100FD800722074C3A46E6421004C32206F666600D0
:100FE8004C4544203220C3A47220736CC3A4636BA5
:100FF8007421004F6BC3A46E74206B6F6D6D616EAE
:10100800646F2120416E76C3A46E6420274C312082
:101018006F6E2F6F66662720656C6C657220274C93
:0A10280032206F6E2F6F66662700FE
:00000001FF
