:100000000C9434000C9451000C9451000C94510049
:100010000C9451000C9451000C9451000C9451001C
:100020000C9451000C9451000C9451000C9451000C
:100030000C9451000C9451000C9451000C945100FC
:100040000C9451000C9451000C9451000C945100EC
:100050000C9451000C9451000C9451000C945100DC
:100060000C9451000C94510011241FBECFEFD8E026
:10007000DEBFCDBF11E0A0E0B1E0E8E1F2E002C0F8
:1000800005900D92A83CB107D9F721E0A8ECB1E0AA
:1000900001C01D92AC3DB207E1F70E9497000C949D
:1000A0000A010C9400009C0140E050E060E472E41E
:1000B0008FE090E00E94DF00215031093093C500AD
:1000C0002093C40088E18093C10086E08093C20041
:1000D00008959091C00095FFFCCF8093C6000895CD
:1000E000CF93DF93EC018991811103C0DF91CF9110
:1000F00008950E946900F7CF9C01FC0180E090E028
:10010000615071094091C00047FFFCCF4091C6008B
:100110004A3029F4280F391FF901108208954D3013
:10012000C9F38617970774F701964193EBCF80E8E0
:1001300095E20E94530084B1866084B980E091E02A
:100140000E94700064E170E088EC91E00E947C0005
:1001500068E271E088EC91E00E940101892B41F492
:10016000299A8EE291E00E94700086EC91E0E8CF3F
:1001700060E471E088EC91E00E940101892B21F498
:10018000299887E491E0EFCF6BE571E088EC91E08E
:100190000E940101892B21F42A9A81E691E0E3CFA4
:1001A00063E771E088EC91E00E940101892B21F462
:1001B0002A988AE791E0D7CF8EE891E0D4CFA1E2E8
:1001C0001A2EAA1BBB1BFD010DC0AA1FBB1FEE1FD1
:1001D000FF1FA217B307E407F50720F0A21BB30B1C
:1001E000E40BF50B661F771F881F991F1A9469F798
:1001F00060957095809590959B01AC01BD01CF01F4
:100200000895FB01DC018D91019080190110D9F353
:08021000990B0895F894FFCF4B
:10021800416E6765206B6F6D6D616E646F20284C51
:1002280031206F6E2F6F66662C204C32206F6E2F38
:100238006F6666293A0D0A004C31206F6E004C45F6
:1002480044203120C3A4722074C3A46E64210A0020
:100258004C31206F6666004C4544203120C3A4729F
:1002680020736CC3A4636B74210A004C32206F6E38
:10027800004C4544203220C3A4722074C3A46E6489
:10028800210A004C32206F6666004C45442032201B
:10029800C3A47220736CC3A4636B74210A004F6BF0
:1002A800C3A46E74206B6F6D6D616E646F21204105
:1002B8006E76C3A46E6420274C31206F6E2F6F6654
:1002C800662720656C6C657220274C32206F6E2F74
:0802D8006F6666270A000D00A5
:00000001FF
